{
  "contractName": "WhitelistedBasicCrowdsale",
  "abi": [
    {
      "constant": true,
      "inputs": [],
      "name": "privateSaleEndDate",
      "outputs": [
        {
          "name": "",
          "type": "uint256"
        }
      ],
      "payable": false,
      "stateMutability": "view",
      "type": "function"
    },
    {
      "constant": true,
      "inputs": [],
      "name": "hasClosed",
      "outputs": [
        {
          "name": "",
          "type": "bool"
        }
      ],
      "payable": false,
      "stateMutability": "view",
      "type": "function"
    },
    {
      "constant": true,
      "inputs": [],
      "name": "rate",
      "outputs": [
        {
          "name": "",
          "type": "uint256"
        }
      ],
      "payable": false,
      "stateMutability": "view",
      "type": "function"
    },
    {
      "constant": false,
      "inputs": [
        {
          "name": "_minter",
          "type": "address"
        }
      ],
      "name": "removeMinter",
      "outputs": [],
      "payable": false,
      "stateMutability": "nonpayable",
      "type": "function"
    },
    {
      "constant": true,
      "inputs": [
        {
          "name": "",
          "type": "address"
        }
      ],
      "name": "whitelistManagers",
      "outputs": [
        {
          "name": "",
          "type": "bool"
        }
      ],
      "payable": false,
      "stateMutability": "view",
      "type": "function"
    },
    {
      "constant": false,
      "inputs": [
        {
          "name": "beneficiaries",
          "type": "address[]"
        },
        {
          "name": "amount",
          "type": "uint256[]"
        }
      ],
      "name": "createBountyTokenToMany",
      "outputs": [
        {
          "name": "",
          "type": "bool"
        }
      ],
      "payable": false,
      "stateMutability": "nonpayable",
      "type": "function"
    },
    {
      "constant": true,
      "inputs": [],
      "name": "cap",
      "outputs": [
        {
          "name": "",
          "type": "uint256"
        }
      ],
      "payable": false,
      "stateMutability": "view",
      "type": "function"
    },
    {
      "constant": false,
      "inputs": [
        {
          "name": "_manager",
          "type": "address"
        }
      ],
      "name": "addWhitelistManager",
      "outputs": [],
      "payable": false,
      "stateMutability": "nonpayable",
      "type": "function"
    },
    {
      "constant": true,
      "inputs": [],
      "name": "weiRaised",
      "outputs": [
        {
          "name": "",
          "type": "uint256"
        }
      ],
      "payable": false,
      "stateMutability": "view",
      "type": "function"
    },
    {
      "constant": true,
      "inputs": [],
      "name": "totalMintedBountyTokens",
      "outputs": [
        {
          "name": "",
          "type": "uint256"
        }
      ],
      "payable": false,
      "stateMutability": "view",
      "type": "function"
    },
    {
      "constant": true,
      "inputs": [],
      "name": "closingTime",
      "outputs": [
        {
          "name": "",
          "type": "uint256"
        }
      ],
      "payable": false,
      "stateMutability": "view",
      "type": "function"
    },
    {
      "constant": false,
      "inputs": [],
      "name": "finalize",
      "outputs": [],
      "payable": false,
      "stateMutability": "nonpayable",
      "type": "function"
    },
    {
      "constant": true,
      "inputs": [],
      "name": "wallet",
      "outputs": [
        {
          "name": "",
          "type": "address"
        }
      ],
      "payable": false,
      "stateMutability": "view",
      "type": "function"
    },
    {
      "constant": false,
      "inputs": [
        {
          "name": "extentionInDays",
          "type": "uint256"
        }
      ],
      "name": "extendMainSaleDuration",
      "outputs": [
        {
          "name": "",
          "type": "bool"
        }
      ],
      "payable": false,
      "stateMutability": "nonpayable",
      "type": "function"
    },
    {
      "constant": true,
      "inputs": [],
      "name": "reservedForTeamTokens",
      "outputs": [
        {
          "name": "",
          "type": "uint256"
        }
      ],
      "payable": false,
      "stateMutability": "view",
      "type": "function"
    },
    {
      "constant": true,
      "inputs": [],
      "name": "capForSale",
      "outputs": [
        {
          "name": "",
          "type": "uint256"
        }
      ],
      "payable": false,
      "stateMutability": "view",
      "type": "function"
    },
    {
      "constant": false,
      "inputs": [
        {
          "name": "beneficiaries",
          "type": "address[]"
        },
        {
          "name": "amount",
          "type": "uint256[]"
        }
      ],
      "name": "createFiatTokenToMany",
      "outputs": [
        {
          "name": "",
          "type": "bool"
        }
      ],
      "payable": false,
      "stateMutability": "nonpayable",
      "type": "function"
    },
    {
      "constant": false,
      "inputs": [
        {
          "name": "_newRate",
          "type": "uint256"
        }
      ],
      "name": "changeRate",
      "outputs": [
        {
          "name": "",
          "type": "bool"
        }
      ],
      "payable": false,
      "stateMutability": "nonpayable",
      "type": "function"
    },
    {
      "constant": true,
      "inputs": [],
      "name": "PRIVATE_SALE_CAP",
      "outputs": [
        {
          "name": "",
          "type": "uint256"
        }
      ],
      "payable": false,
      "stateMutability": "view",
      "type": "function"
    },
    {
      "constant": false,
      "inputs": [
        {
          "name": "_beneficiary",
          "type": "address"
        }
      ],
      "name": "removeFromWhitelist",
      "outputs": [],
      "payable": false,
      "stateMutability": "nonpayable",
      "type": "function"
    },
    {
      "constant": true,
      "inputs": [],
      "name": "PRIVATE_SALE_DURATION",
      "outputs": [
        {
          "name": "",
          "type": "uint256"
        }
      ],
      "payable": false,
      "stateMutability": "view",
      "type": "function"
    },
    {
      "constant": false,
      "inputs": [
        {
          "name": "_beneficiaries",
          "type": "address[]"
        }
      ],
      "name": "addManyToWhitelist",
      "outputs": [],
      "payable": false,
      "stateMutability": "nonpayable",
      "type": "function"
    },
    {
      "constant": true,
      "inputs": [],
      "name": "isFinalized",
      "outputs": [
        {
          "name": "",
          "type": "bool"
        }
      ],
      "payable": false,
      "stateMutability": "view",
      "type": "function"
    },
    {
      "constant": true,
      "inputs": [],
      "name": "owner",
      "outputs": [
        {
          "name": "",
          "type": "address"
        }
      ],
      "payable": false,
      "stateMutability": "view",
      "type": "function"
    },
    {
      "constant": true,
      "inputs": [],
      "name": "MAIN_SALE_DURATION",
      "outputs": [
        {
          "name": "",
          "type": "uint256"
        }
      ],
      "payable": false,
      "stateMutability": "view",
      "type": "function"
    },
    {
      "constant": false,
      "inputs": [
        {
          "name": "_minter",
          "type": "address"
        }
      ],
      "name": "addMinter",
      "outputs": [],
      "payable": false,
      "stateMutability": "nonpayable",
      "type": "function"
    },
    {
      "constant": false,
      "inputs": [
        {
          "name": "extentionInDays",
          "type": "uint256"
        }
      ],
      "name": "extendPrivateSaleDuration",
      "outputs": [
        {
          "name": "",
          "type": "bool"
        }
      ],
      "payable": false,
      "stateMutability": "nonpayable",
      "type": "function"
    },
    {
      "constant": true,
      "inputs": [
        {
          "name": "",
          "type": "address"
        }
      ],
      "name": "whitelist",
      "outputs": [
        {
          "name": "",
          "type": "bool"
        }
      ],
      "payable": false,
      "stateMutability": "view",
      "type": "function"
    },
    {
      "constant": true,
      "inputs": [],
      "name": "openingTime",
      "outputs": [
        {
          "name": "",
          "type": "uint256"
        }
      ],
      "payable": false,
      "stateMutability": "view",
      "type": "function"
    },
    {
      "constant": true,
      "inputs": [],
      "name": "mainSaleDurationExtentionLimitInDays",
      "outputs": [
        {
          "name": "",
          "type": "uint256"
        }
      ],
      "payable": false,
      "stateMutability": "view",
      "type": "function"
    },
    {
      "constant": false,
      "inputs": [
        {
          "name": "beneficiary",
          "type": "address"
        },
        {
          "name": "amount",
          "type": "uint256"
        }
      ],
      "name": "createFiatToken",
      "outputs": [
        {
          "name": "",
          "type": "bool"
        }
      ],
      "payable": false,
      "stateMutability": "nonpayable",
      "type": "function"
    },
    {
      "constant": false,
      "inputs": [
        {
          "name": "_manager",
          "type": "address"
        }
      ],
      "name": "removeWhitelistManager",
      "outputs": [],
      "payable": false,
      "stateMutability": "nonpayable",
      "type": "function"
    },
    {
      "constant": false,
      "inputs": [
        {
          "name": "_beneficiary",
          "type": "address"
        }
      ],
      "name": "addToWhitelist",
      "outputs": [],
      "payable": false,
      "stateMutability": "nonpayable",
      "type": "function"
    },
    {
      "constant": true,
      "inputs": [],
      "name": "bountyTokensCap",
      "outputs": [
        {
          "name": "",
          "type": "uint256"
        }
      ],
      "payable": false,
      "stateMutability": "view",
      "type": "function"
    },
    {
      "constant": false,
      "inputs": [
        {
          "name": "beneficiary",
          "type": "address"
        }
      ],
      "name": "buyTokens",
      "outputs": [],
      "payable": true,
      "stateMutability": "payable",
      "type": "function"
    },
    {
      "constant": false,
      "inputs": [
        {
          "name": "beneficiary",
          "type": "address"
        },
        {
          "name": "amount",
          "type": "uint256"
        }
      ],
      "name": "createBountyToken",
      "outputs": [
        {
          "name": "",
          "type": "bool"
        }
      ],
      "payable": false,
      "stateMutability": "nonpayable",
      "type": "function"
    },
    {
      "constant": false,
      "inputs": [
        {
          "name": "newOwner",
          "type": "address"
        }
      ],
      "name": "transferOwnership",
      "outputs": [],
      "payable": false,
      "stateMutability": "nonpayable",
      "type": "function"
    },
    {
      "constant": true,
      "inputs": [
        {
          "name": "",
          "type": "address"
        }
      ],
      "name": "minters",
      "outputs": [
        {
          "name": "",
          "type": "bool"
        }
      ],
      "payable": false,
      "stateMutability": "view",
      "type": "function"
    },
    {
      "constant": true,
      "inputs": [],
      "name": "token",
      "outputs": [
        {
          "name": "",
          "type": "address"
        }
      ],
      "payable": false,
      "stateMutability": "view",
      "type": "function"
    },
    {
      "inputs": [
        {
          "name": "_rate",
          "type": "uint256"
        },
        {
          "name": "_wallet",
          "type": "address"
        },
        {
          "name": "_token",
          "type": "address"
        },
        {
          "name": "_openingTime",
          "type": "uint256"
        },
        {
          "name": "_closingTime",
          "type": "uint256"
        }
      ],
      "payable": false,
      "stateMutability": "nonpayable",
      "type": "constructor"
    },
    {
      "payable": true,
      "stateMutability": "payable",
      "type": "fallback"
    },
    {
      "anonymous": false,
      "inputs": [
        {
          "indexed": false,
          "name": "sender",
          "type": "address"
        },
        {
          "indexed": false,
          "name": "beficiary",
          "type": "address"
        },
        {
          "indexed": false,
          "name": "amount",
          "type": "uint256"
        }
      ],
      "name": "LogFiatTokenMinted",
      "type": "event"
    },
    {
      "anonymous": false,
      "inputs": [
        {
          "indexed": false,
          "name": "sender",
          "type": "address"
        },
        {
          "indexed": false,
          "name": "beneficiaries",
          "type": "address[]"
        },
        {
          "indexed": false,
          "name": "amount",
          "type": "uint256[]"
        }
      ],
      "name": "LogFiatTokenMintedToMany",
      "type": "event"
    },
    {
      "anonymous": false,
      "inputs": [
        {
          "indexed": false,
          "name": "minter",
          "type": "address"
        },
        {
          "indexed": false,
          "name": "beneficiary",
          "type": "address"
        },
        {
          "indexed": false,
          "name": "amount",
          "type": "uint256"
        }
      ],
      "name": "LogBountyTokenMinted",
      "type": "event"
    },
    {
      "anonymous": false,
      "inputs": [
        {
          "indexed": false,
          "name": "sender",
          "type": "address"
        },
        {
          "indexed": false,
          "name": "beneficiaries",
          "type": "address[]"
        },
        {
          "indexed": false,
          "name": "amount",
          "type": "uint256[]"
        }
      ],
      "name": "LogBountyTokenMintedToMany",
      "type": "event"
    },
    {
      "anonymous": false,
      "inputs": [
        {
          "indexed": false,
          "name": "extentionInDays",
          "type": "uint256"
        }
      ],
      "name": "LogPrivateSaleExtended",
      "type": "event"
    },
    {
      "anonymous": false,
      "inputs": [
        {
          "indexed": false,
          "name": "extentionInDays",
          "type": "uint256"
        }
      ],
      "name": "LogMainSaleExtended",
      "type": "event"
    },
    {
      "anonymous": false,
      "inputs": [
        {
          "indexed": false,
          "name": "rate",
          "type": "uint256"
        }
      ],
      "name": "LogRateChanged",
      "type": "event"
    },
    {
      "anonymous": false,
      "inputs": [
        {
          "indexed": false,
          "name": "minterAdded",
          "type": "address"
        }
      ],
      "name": "LogMinterAdded",
      "type": "event"
    },
    {
      "anonymous": false,
      "inputs": [
        {
          "indexed": false,
          "name": "minterRemoved",
          "type": "address"
        }
      ],
      "name": "LogMinterRemoved",
      "type": "event"
    },
    {
      "anonymous": false,
      "inputs": [],
      "name": "Finalized",
      "type": "event"
    },
    {
      "anonymous": false,
      "inputs": [
        {
          "indexed": true,
          "name": "previousOwner",
          "type": "address"
        },
        {
          "indexed": true,
          "name": "newOwner",
          "type": "address"
        }
      ],
      "name": "OwnershipTransferred",
      "type": "event"
    },
    {
      "anonymous": false,
      "inputs": [
        {
          "indexed": true,
          "name": "purchaser",
          "type": "address"
        },
        {
          "indexed": true,
          "name": "beneficiary",
          "type": "address"
        },
        {
          "indexed": false,
          "name": "value",
          "type": "uint256"
        },
        {
          "indexed": false,
          "name": "amount",
          "type": "uint256"
        }
      ],
      "name": "TokenPurchase",
      "type": "event"
    }
  ],
  "bytecode": "0x60806040526000600660146101000a81548160ff0219169083151502179055506a52b7d2dcc80cd2e40000006007556a3abad5b65ad5e7a70000006008556a0422ca8b0a00a4250000006009556a17fcfd266d36eb3d000000600a556078600e553480156200006d57600080fd5b5060405160a08062002d6d833981018060405281019080805190602001909291908051906020019092919080519060200190929190805190602001909291908051906020019092919050505084848484848181868686600083111515620000d357600080fd5b600073ffffffffffffffffffffffffffffffffffffffff168273ffffffffffffffffffffffffffffffffffffffff16141515156200011057600080fd5b600073ffffffffffffffffffffffffffffffffffffffff168173ffffffffffffffffffffffffffffffffffffffff16141515156200014d57600080fd5b8260028190555081600160006101000a81548173ffffffffffffffffffffffffffffffffffffffff021916908373ffffffffffffffffffffffffffffffffffffffff160217905550806000806101000a81548173ffffffffffffffffffffffffffffffffffffffff021916908373ffffffffffffffffffffffffffffffffffffffff160217905550505050428210151515620001e857600080fd5b818110151515620001f857600080fd5b8160048190555080600581905550505033600660006101000a81548173ffffffffffffffffffffffffffffffffffffffff021916908373ffffffffffffffffffffffffffffffffffffffff1602179055506200026f621fa40083620002ff6401000000000262002120179091906401000000009004565b600c819055505050505050600160106000600660009054906101000a900473ffffffffffffffffffffffffffffffffffffffff1673ffffffffffffffffffffffffffffffffffffffff1673ffffffffffffffffffffffffffffffffffffffff16815260200190815260200160002060006101000a81548160ff02191690831515021790555050505050506200031c565b600081830190508281101515156200031357fe5b80905092915050565b612a41806200032c6000396000f3006080604052600436106101e2576000357c0100000000000000000000000000000000000000000000000000000000900463ffffffff1680626c2abc146101ed5780631515bc2b146102185780632c4e722e146102475780633092afd51461027257806331e8e0a2146102b5578063352cf07a14610310578063355274ea146103d157806336facd8d146103fc5780634042b66f1461043f578063431454fb1461046a5780634b6753bc146104955780634bb278f3146104c0578063521eb273146104d7578063532cf78d1461052e5780635b909e2d146105735780636178dbeb1461059e5780636b7837d4146105c957806374e7493b1461068a5780637de528ad146106cf5780638ab1d681146106fa5780638b3f520e1461073d5780638c10671c146107685780638d4e4083146107a35780638da5cb5b146107d25780638eab0f8614610829578063983b2d5614610854578063993721d4146108975780639b19251a146108dc578063b7a8807c14610937578063c18bab4a14610962578063c28f06f71461098d578063d81685fc146109f2578063e43252d714610a35578063ec0290ad14610a78578063ec8ac4d814610aa3578063f1a6373314610ad9578063f2fde38b14610b3e578063f46eccc414610b81578063fc0c546a14610bdc575b6101eb33610c33565b005b3480156101f957600080fd5b50610202610e53565b6040518082815260200191505060405180910390f35b34801561022457600080fd5b5061022d610e59565b604051808215151515815260200191505060405180910390f35b34801561025357600080fd5b5061025c610e65565b6040518082815260200191505060405180910390f35b34801561027e57600080fd5b506102b3600480360381019080803573ffffffffffffffffffffffffffffffffffffffff169060200190929190505050610e6b565b005b3480156102c157600080fd5b506102f6600480360381019080803573ffffffffffffffffffffffffffffffffffffffff169060200190929190505050610f85565b604051808215151515815260200191505060405180910390f35b34801561031c57600080fd5b506103b76004803603810190808035906020019082018035906020019080806020026020016040519081016040528093929190818152602001838360200280828437820191505050505050919291929080359060200190820180359060200190808060200260200160405190810160405280939291908181526020018383602002808284378201915050505050509192919290505050610fa5565b604051808215151515815260200191505060405180910390f35b3480156103dd57600080fd5b506103e661115d565b6040518082815260200191505060405180910390f35b34801561040857600080fd5b5061043d600480360381019080803573ffffffffffffffffffffffffffffffffffffffff169060200190929190505050611163565b005b34801561044b57600080fd5b50610454611256565b6040518082815260200191505060405180910390f35b34801561047657600080fd5b5061047f61125c565b6040518082815260200191505060405180910390f35b3480156104a157600080fd5b506104aa611262565b6040518082815260200191505060405180910390f35b3480156104cc57600080fd5b506104d5611268565b005b3480156104e357600080fd5b506104ec611344565b604051808273ffffffffffffffffffffffffffffffffffffffff1673ffffffffffffffffffffffffffffffffffffffff16815260200191505060405180910390f35b34801561053a57600080fd5b506105596004803603810190808035906020019092919050505061136a565b604051808215151515815260200191505060405180910390f35b34801561057f57600080fd5b506105886114a0565b6040518082815260200191505060405180910390f35b3480156105aa57600080fd5b506105b36114a6565b6040518082815260200191505060405180910390f35b3480156105d557600080fd5b5061067060048036038101908080359060200190820180359060200190808060200260200160405190810160405280939291908181526020018383602002808284378201915050505050509192919290803590602001908201803590602001908080602002602001604051908101604052809392919081815260200183836020028082843782019150505050505091929192905050506114ac565b604051808215151515815260200191505060405180910390f35b34801561069657600080fd5b506106b560048036038101908080359060200190929190505050611664565b604051808215151515815260200191505060405180910390f35b3480156106db57600080fd5b506106e461172d565b6040518082815260200191505060405180910390f35b34801561070657600080fd5b5061073b600480360381019080803573ffffffffffffffffffffffffffffffffffffffff16906020019092919050505061173c565b005b34801561074957600080fd5b506107526117ef565b6040518082815260200191505060405180910390f35b34801561077457600080fd5b506107a16004803603810190808035906020019082018035906020019190919293919293905050506117f6565b005b3480156107af57600080fd5b506107b86118f4565b604051808215151515815260200191505060405180910390f35b3480156107de57600080fd5b506107e7611907565b604051808273ffffffffffffffffffffffffffffffffffffffff1673ffffffffffffffffffffffffffffffffffffffff16815260200191505060405180910390f35b34801561083557600080fd5b5061083e61192d565b6040518082815260200191505060405180910390f35b34801561086057600080fd5b50610895600480360381019080803573ffffffffffffffffffffffffffffffffffffffff169060200190929190505050611934565b005b3480156108a357600080fd5b506108c260048036038101908080359060200190929190505050611a8a565b604051808215151515815260200191505060405180910390f35b3480156108e857600080fd5b5061091d600480360381019080803573ffffffffffffffffffffffffffffffffffffffff169060200190929190505050611b87565b604051808215151515815260200191505060405180910390f35b34801561094357600080fd5b5061094c611ba7565b6040518082815260200191505060405180910390f35b34801561096e57600080fd5b50610977611bad565b6040518082815260200191505060405180910390f35b34801561099957600080fd5b506109d8600480360381019080803573ffffffffffffffffffffffffffffffffffffffff16906020019092919080359060200190929190505050611bb3565b604051808215151515815260200191505060405180910390f35b3480156109fe57600080fd5b50610a33600480360381019080803573ffffffffffffffffffffffffffffffffffffffff169060200190929190505050611cd4565b005b348015610a4157600080fd5b50610a76600480360381019080803573ffffffffffffffffffffffffffffffffffffffff169060200190929190505050611d8b565b005b348015610a8457600080fd5b50610a8d611e3e565b6040518082815260200191505060405180910390f35b610ad7600480360381019080803573ffffffffffffffffffffffffffffffffffffffff169060200190929190505050610c33565b005b348015610ae557600080fd5b50610b24600480360381019080803573ffffffffffffffffffffffffffffffffffffffff16906020019092919080359060200190929190505050611e44565b604051808215151515815260200191505060405180910390f35b348015610b4a57600080fd5b50610b7f600480360381019080803573ffffffffffffffffffffffffffffffffffffffff169060200190929190505050611f65565b005b348015610b8d57600080fd5b50610bc2600480360381019080803573ffffffffffffffffffffffffffffffffffffffff1690602001909291905050506120bd565b604051808215151515815260200191505060405180910390f35b348015610be857600080fd5b50610bf16120dd565b604051808273ffffffffffffffffffffffffffffffffffffffff1673ffffffffffffffffffffffffffffffffffffffff16815260200191505060405180910390f35b6000662386f26fc100003410151515610c4b57600080fd5b680d8d726b7177a800003411151515610c6357600080fd5b610c6c34612102565b9050600c5442111515610d64576a1581b6d300d0225a000000610d57826000809054906101000a900473ffffffffffffffffffffffffffffffffffffffff1673ffffffffffffffffffffffffffffffffffffffff166318160ddd6040518163ffffffff167c0100000000000000000000000000000000000000000000000000000000028152600401602060405180830381600087803b158015610d0e57600080fd5b505af1158015610d22573d6000803e3d6000fd5b505050506040513d6020811015610d3857600080fd5b810190808051906020019092919050505061212090919063ffffffff16565b101515610d6357600080fd5b5b600854610e39826000809054906101000a900473ffffffffffffffffffffffffffffffffffffffff1673ffffffffffffffffffffffffffffffffffffffff166318160ddd6040518163ffffffff167c0100000000000000000000000000000000000000000000000000000000028152600401602060405180830381600087803b158015610df057600080fd5b505af1158015610e04573d6000803e3d6000fd5b505050506040513d6020811015610e1a57600080fd5b810190808051906020019092919050505061212090919063ffffffff16565b11151515610e4657600080fd5b610e4f8261213c565b5050565b600c5481565b60006005544211905090565b60025481565b600660009054906101000a900473ffffffffffffffffffffffffffffffffffffffff1673ffffffffffffffffffffffffffffffffffffffff163373ffffffffffffffffffffffffffffffffffffffff16141515610ec757600080fd5b6000600d60008373ffffffffffffffffffffffffffffffffffffffff1673ffffffffffffffffffffffffffffffffffffffff16815260200190815260200160002060006101000a81548160ff0219169083151502179055507f4f2e45736bb0b7476bb1aaf6ee5b6f4ae1783384c4f707a4158e14d64d7eda0481604051808273ffffffffffffffffffffffffffffffffffffffff1673ffffffffffffffffffffffffffffffffffffffff16815260200191505060405180910390a150565b60106020528060005260406000206000915054906101000a900460ff1681565b600080600d60003373ffffffffffffffffffffffffffffffffffffffff1673ffffffffffffffffffffffffffffffffffffffff16815260200190815260200160002060009054906101000a900460ff16151561100057600080fd5b61100a848461220a565b600090505b835181101561105d57611050848281518110151561102957fe5b90602001906020020151848381518110151561104157fe5b90602001906020020151612242565b808060010191505061100f565b7f737d5cf083c6df12390be993628fed9e8cffb9adcdeab9b73a4d388219b9ec31338585604051808473ffffffffffffffffffffffffffffffffffffffff1673ffffffffffffffffffffffffffffffffffffffff1681526020018060200180602001838103835285818151815260200191508051906020019060200280838360005b838110156110fa5780820151818401526020810190506110df565b50505050905001838103825284818151815260200191508051906020019060200280838360005b8381101561113c578082015181840152602081019050611121565b505050509050019550505050505060405180910390a1600191505092915050565b60075481565b600660009054906101000a900473ffffffffffffffffffffffffffffffffffffffff1673ffffffffffffffffffffffffffffffffffffffff163373ffffffffffffffffffffffffffffffffffffffff161415156111bf57600080fd5b600073ffffffffffffffffffffffffffffffffffffffff168173ffffffffffffffffffffffffffffffffffffffff16141515156111fb57600080fd5b6001601060008373ffffffffffffffffffffffffffffffffffffffff1673ffffffffffffffffffffffffffffffffffffffff16815260200190815260200160002060006101000a81548160ff02191690831515021790555050565b60035481565b600b5481565b60055481565b600660009054906101000a900473ffffffffffffffffffffffffffffffffffffffff1673ffffffffffffffffffffffffffffffffffffffff163373ffffffffffffffffffffffffffffffffffffffff161415156112c457600080fd5b600660149054906101000a900460ff161515156112e057600080fd5b6112e8610e59565b15156112f357600080fd5b6112fb612468565b7f6823b073d48d6e3a7d385eeb601452d680e74bb46afe3255a7d778f3a9b1768160405160405180910390a16001600660146101000a81548160ff021916908315150217905550565b600160009054906101000a900473ffffffffffffffffffffffffffffffffffffffff1681565b600080600660009054906101000a900473ffffffffffffffffffffffffffffffffffffffff1673ffffffffffffffffffffffffffffffffffffffff163373ffffffffffffffffffffffffffffffffffffffff161415156113c957600080fd5b600c54421115156113d957600080fd5b6113e1610e59565b1515156113ed57600080fd5b600061140484600e5461256890919063ffffffff16565b1015151561141157600080fd5b611427620151808461258190919063ffffffff16565b905061143e83600e5461256890919063ffffffff16565b600e819055506114598160055461212090919063ffffffff16565b6005819055507fd56dc2c860b2962a58ce1023598b72cac28c14ecf3087a391d2c3825ea8ccb7e836040518082815260200191505060405180910390a16001915050919050565b600a5481565b60085481565b600080600d60003373ffffffffffffffffffffffffffffffffffffffff1673ffffffffffffffffffffffffffffffffffffffff16815260200190815260200160002060009054906101000a900460ff16151561150757600080fd5b611511848461220a565b600090505b835181101561156457611557848281518110151561153057fe5b90602001906020020151848381518110151561154857fe5b906020019060200201516125b9565b8080600101915050611516565b7fb753273e44b9730704674aac88c238e01a104313f167154be5853064e1dd66f0338585604051808473ffffffffffffffffffffffffffffffffffffffff1673ffffffffffffffffffffffffffffffffffffffff1681526020018060200180602001838103835285818151815260200191508051906020019060200280838360005b838110156116015780820151818401526020810190506115e6565b50505050905001838103825284818151815260200191508051906020019060200280838360005b83811015611643578082015181840152602081019050611628565b505050509050019550505050505060405180910390a1600191505092915050565b6000600660009054906101000a900473ffffffffffffffffffffffffffffffffffffffff1673ffffffffffffffffffffffffffffffffffffffff163373ffffffffffffffffffffffffffffffffffffffff161415156116c257600080fd5b6116ca610e59565b1515156116d657600080fd5b600082141515156116e657600080fd5b816002819055507f9d6ef0d454e23e234e8c1cf70cee49a44226ffb036017442229a7a5bd1d0957e826040518082815260200191505060405180910390a160019050919050565b6a1581b6d300d0225a00000081565b601060003373ffffffffffffffffffffffffffffffffffffffff1673ffffffffffffffffffffffffffffffffffffffff16815260200190815260200160002060009054906101000a900460ff16151561179457600080fd5b6000600f60008373ffffffffffffffffffffffffffffffffffffffff1673ffffffffffffffffffffffffffffffffffffffff16815260200190815260200160002060006101000a81548160ff02191690831515021790555050565b621fa40081565b6000601060003373ffffffffffffffffffffffffffffffffffffffff1673ffffffffffffffffffffffffffffffffffffffff16815260200190815260200160002060009054906101000a900460ff16151561185057600080fd5b600090505b828290508110156118ef576001600f6000858585818110151561187457fe5b9050602002013573ffffffffffffffffffffffffffffffffffffffff1673ffffffffffffffffffffffffffffffffffffffff1673ffffffffffffffffffffffffffffffffffffffff16815260200190815260200160002060006101000a81548160ff0219169083151502179055508080600101915050611855565b505050565b600660149054906101000a900460ff1681565b600660009054906101000a900473ffffffffffffffffffffffffffffffffffffffff1681565b624f1a0081565b600660009054906101000a900473ffffffffffffffffffffffffffffffffffffffff1673ffffffffffffffffffffffffffffffffffffffff163373ffffffffffffffffffffffffffffffffffffffff1614151561199057600080fd5b600073ffffffffffffffffffffffffffffffffffffffff168173ffffffffffffffffffffffffffffffffffffffff16141515156119cc57600080fd5b6001600d60008373ffffffffffffffffffffffffffffffffffffffff1673ffffffffffffffffffffffffffffffffffffffff16815260200190815260200160002060006101000a81548160ff0219169083151502179055507ff520dd67ceedf317bc1fd6202af56f22510a422039748e1dc927ad4f5dcfd51c81604051808273ffffffffffffffffffffffffffffffffffffffff1673ffffffffffffffffffffffffffffffffffffffff16815260200191505060405180910390a150565b6000600660009054906101000a900473ffffffffffffffffffffffffffffffffffffffff1673ffffffffffffffffffffffffffffffffffffffff163373ffffffffffffffffffffffffffffffffffffffff16141515611ae857600080fd5b600c544211151515611af957600080fd5b611b0f620151808361258190919063ffffffff16565b9150611b2682600c5461212090919063ffffffff16565b600c81905550611b418260055461212090919063ffffffff16565b6005819055507f7df78e9fd0846ddf39f6308d970e33c9c54abfcfb0090cb6c0d716f7986f8b29826040518082815260200191505060405180910390a160019050919050565b600f6020528060005260406000206000915054906101000a900460ff1681565b60045481565b600e5481565b6000600d60003373ffffffffffffffffffffffffffffffffffffffff1673ffffffffffffffffffffffffffffffffffffffff16815260200190815260200160002060009054906101000a900460ff161515611c0d57600080fd5b611c15610e59565b151515611c2157600080fd5b611c2b83836125b9565b7f95a520a21ce4355b93aeb1d7ee5a2c3fc33509998055b6d5779ef10097a52cc2338484604051808473ffffffffffffffffffffffffffffffffffffffff1673ffffffffffffffffffffffffffffffffffffffff1681526020018373ffffffffffffffffffffffffffffffffffffffff1673ffffffffffffffffffffffffffffffffffffffff168152602001828152602001935050505060405180910390a16001905092915050565b600660009054906101000a900473ffffffffffffffffffffffffffffffffffffffff1673ffffffffffffffffffffffffffffffffffffffff163373ffffffffffffffffffffffffffffffffffffffff16141515611d3057600080fd5b6000601060008373ffffffffffffffffffffffffffffffffffffffff1673ffffffffffffffffffffffffffffffffffffffff16815260200190815260200160002060006101000a81548160ff02191690831515021790555050565b601060003373ffffffffffffffffffffffffffffffffffffffff1673ffffffffffffffffffffffffffffffffffffffff16815260200190815260200160002060009054906101000a900460ff161515611de357600080fd5b6001600f60008373ffffffffffffffffffffffffffffffffffffffff1673ffffffffffffffffffffffffffffffffffffffff16815260200190815260200160002060006101000a81548160ff02191690831515021790555050565b60095481565b6000600d60003373ffffffffffffffffffffffffffffffffffffffff1673ffffffffffffffffffffffffffffffffffffffff16815260200190815260200160002060009054906101000a900460ff161515611e9e57600080fd5b611ea6610e59565b151515611eb257600080fd5b611ebc8383612242565b7fda06cceac0e5d29c435bd56e522309bbd7c1a35f7192d1aa7b533903d94854f0338484604051808473ffffffffffffffffffffffffffffffffffffffff1673ffffffffffffffffffffffffffffffffffffffff1681526020018373ffffffffffffffffffffffffffffffffffffffff1673ffffffffffffffffffffffffffffffffffffffff168152602001828152602001935050505060405180910390a16001905092915050565b600660009054906101000a900473ffffffffffffffffffffffffffffffffffffffff1673ffffffffffffffffffffffffffffffffffffffff163373ffffffffffffffffffffffffffffffffffffffff16141515611fc157600080fd5b600073ffffffffffffffffffffffffffffffffffffffff168173ffffffffffffffffffffffffffffffffffffffff1614151515611ffd57600080fd5b8073ffffffffffffffffffffffffffffffffffffffff16600660009054906101000a900473ffffffffffffffffffffffffffffffffffffffff1673ffffffffffffffffffffffffffffffffffffffff167f8be0079c531659141344cd1fd0a4f28419497f9722a3daafe3b4186f6b6457e060405160405180910390a380600660006101000a81548173ffffffffffffffffffffffffffffffffffffffff021916908373ffffffffffffffffffffffffffffffffffffffff16021790555050565b600d6020528060005260406000206000915054906101000a900460ff1681565b6000809054906101000a900473ffffffffffffffffffffffffffffffffffffffff1681565b60006121196002548361258190919063ffffffff16565b9050919050565b6000818301905082811015151561213357fe5b80905092915050565b60008034915061214c838361279f565b61215582612102565b905061216c8260035461212090919063ffffffff16565b60038190555061217c8382612807565b8273ffffffffffffffffffffffffffffffffffffffff163373ffffffffffffffffffffffffffffffffffffffff167f623b3804fa71d67900d064613da8f94b9617215ee90799290593e1745087ad188484604051808381526020018281526020019250505060405180910390a36121f38383612815565b6121fb612819565b6122058383612884565b505050565b612212610e59565b15151561221e57600080fd5b6000825111151561222e57600080fd5b8051825114151561223e57600080fd5b5050565b600854612317826000809054906101000a900473ffffffffffffffffffffffffffffffffffffffff1673ffffffffffffffffffffffffffffffffffffffff166318160ddd6040518163ffffffff167c0100000000000000000000000000000000000000000000000000000000028152600401602060405180830381600087803b1580156122ce57600080fd5b505af11580156122e2573d6000803e3d6000fd5b505050506040513d60208110156122f857600080fd5b810190808051906020019092919050505061212090919063ffffffff16565b1115151561232457600080fd5b60095461233c82600b5461212090919063ffffffff16565b1115151561234957600080fd5b6000809054906101000a900473ffffffffffffffffffffffffffffffffffffffff1673ffffffffffffffffffffffffffffffffffffffff166340c10f1983836040518363ffffffff167c0100000000000000000000000000000000000000000000000000000000028152600401808373ffffffffffffffffffffffffffffffffffffffff1673ffffffffffffffffffffffffffffffffffffffff16815260200182815260200192505050602060405180830381600087803b15801561240d57600080fd5b505af1158015612421573d6000803e3d6000fd5b505050506040513d602081101561243757600080fd5b81019080805190602001909291905050505061245e81600b5461212090919063ffffffff16565b600b819055505050565b6000809054906101000a900473ffffffffffffffffffffffffffffffffffffffff1673ffffffffffffffffffffffffffffffffffffffff1663f2fde38b600660009054906101000a900473ffffffffffffffffffffffffffffffffffffffff166040518263ffffffff167c0100000000000000000000000000000000000000000000000000000000028152600401808273ffffffffffffffffffffffffffffffffffffffff1673ffffffffffffffffffffffffffffffffffffffff168152602001915050600060405180830381600087803b15801561254657600080fd5b505af115801561255a573d6000803e3d6000fd5b50505050612566612888565b565b600082821115151561257657fe5b818303905092915050565b60008083141561259457600090506125b3565b81830290508183828115156125a557fe5b041415156125af57fe5b8090505b92915050565b60085461268e826000809054906101000a900473ffffffffffffffffffffffffffffffffffffffff1673ffffffffffffffffffffffffffffffffffffffff166318160ddd6040518163ffffffff167c0100000000000000000000000000000000000000000000000000000000028152600401602060405180830381600087803b15801561264557600080fd5b505af1158015612659573d6000803e3d6000fd5b505050506040513d602081101561266f57600080fd5b810190808051906020019092919050505061212090919063ffffffff16565b1115151561269b57600080fd5b6000809054906101000a900473ffffffffffffffffffffffffffffffffffffffff1673ffffffffffffffffffffffffffffffffffffffff166340c10f1983836040518363ffffffff167c0100000000000000000000000000000000000000000000000000000000028152600401808373ffffffffffffffffffffffffffffffffffffffff1673ffffffffffffffffffffffffffffffffffffffff16815260200182815260200192505050602060405180830381600087803b15801561275f57600080fd5b505af1158015612773573d6000803e3d6000fd5b505050506040513d602081101561278957600080fd5b8101908080519060200190929190505050505050565b81600f60008273ffffffffffffffffffffffffffffffffffffffff1673ffffffffffffffffffffffffffffffffffffffff16815260200190815260200160002060009054906101000a900460ff1615156127f857600080fd5b612802838361288a565b505050565b61281182826128b7565b5050565b5050565b600160009054906101000a900473ffffffffffffffffffffffffffffffffffffffff1673ffffffffffffffffffffffffffffffffffffffff166108fc349081150290604051600060405180830381858888f19350505050158015612881573d6000803e3d6000fd5b50565b5050565b565b600454421015801561289e57506005544211155b15156128a957600080fd5b6128b382826129c5565b5050565b6000809054906101000a900473ffffffffffffffffffffffffffffffffffffffff1673ffffffffffffffffffffffffffffffffffffffff166340c10f1983836040518363ffffffff167c0100000000000000000000000000000000000000000000000000000000028152600401808373ffffffffffffffffffffffffffffffffffffffff1673ffffffffffffffffffffffffffffffffffffffff16815260200182815260200192505050602060405180830381600087803b15801561297b57600080fd5b505af115801561298f573d6000803e3d6000fd5b505050506040513d60208110156129a557600080fd5b810190808051906020019092919050505015156129c157600080fd5b5050565b600073ffffffffffffffffffffffffffffffffffffffff168273ffffffffffffffffffffffffffffffffffffffff1614151515612a0157600080fd5b60008114151515612a1157600080fd5b50505600a165627a7a723058208c670e87e36aee80b6283b7729567b92de7c80d5f4f7975fc2229301c8f11b6f0029",
  "source": "pragma solidity ^0.4.24;\n\nimport \"./BasicCrowdsale.sol\";\nimport \"./MultipleWhitelistedCrowdsale.sol\";\n\n\ncontract WhitelistedBasicCrowdsale is BasicCrowdsale, MultipleWhitelistedCrowdsale {\n\n\n    constructor(uint256 _rate, address _wallet, address _token, uint256 _openingTime, uint256 _closingTime)\n    BasicCrowdsale(_rate, _wallet, ERC20(_token), _openingTime, _closingTime)\n    MultipleWhitelistedCrowdsale()\n    public {\n    }\n}",
  "sourcePath": "/Users/desimiramitkova/Projects/mycro-crowdsale/contracts/Crowdsale/WhitelistedBasicCrowdsale.sol",
  "compiler": {
    "name": "solc",
    "version": "0.4.24+commit.e67f0147.Emscripten.clang"
  },
  "schemaVersion": "3.0.1",
  "updatedAt": "2019-04-19T15:06:44.909Z",
  "devdoc": {
    "methods": {
      "addManyToWhitelist(address[])": {
        "details": "Adds list of addresses to whitelist. Not overloaded due to limitations with truffle testing.",
        "params": {
          "_beneficiaries": "Addresses to be added to the whitelist"
        }
      },
      "addToWhitelist(address)": {
        "details": "Adds single address to whitelist.",
        "params": {
          "_beneficiary": "Address to be added to the whitelist"
        }
      },
      "addWhitelistManager(address)": {
        "details": "Adds single address who can manage the whitelist.",
        "params": {
          "_manager": "Address to be added to the whitelistManagers"
        }
      },
      "extendMainSaleDuration(uint256)": {
        "params": {
          "extentionInDays": "is a simple number of the days, e.c. 3 => 3 days"
        }
      },
      "extendPrivateSaleDuration(uint256)": {
        "params": {
          "extentionInDays": "is a simple number of the days, e.c. 3 => 3 days"
        }
      },
      "finalize()": {
        "details": "Must be called after crowdsale ends, to do some extra finalization work. Calls the contract's finalization function."
      },
      "hasClosed()": {
        "details": "Checks whether the period in which the crowdsale is open has already elapsed.",
        "return": "Whether crowdsale period has elapsed"
      },
      "removeFromWhitelist(address)": {
        "details": "Removes single address from whitelist.",
        "params": {
          "_beneficiary": "Address to be removed to the whitelist"
        }
      },
      "removeWhitelistManager(address)": {
        "params": {
          "_manager": "Address to remove from whitelistManagers"
        }
      },
      "transferOwnership(address)": {
        "details": "Allows the current owner to transfer control of the contract to a newOwner.",
        "params": {
          "newOwner": "The address to transfer ownership to."
        }
      }
    }
  },
  "userdoc": {
    "methods": {}
  }
}