{
  "contractName": "WhitelistedBasicCrowdsale",
  "abi": [
    {
      "constant": true,
      "inputs": [],
      "name": "privateSaleEndDate",
      "outputs": [
        {
          "name": "",
          "type": "uint256"
        }
      ],
      "payable": false,
      "stateMutability": "view",
      "type": "function"
    },
    {
      "constant": true,
      "inputs": [],
      "name": "hasClosed",
      "outputs": [
        {
          "name": "",
          "type": "bool"
        }
      ],
      "payable": false,
      "stateMutability": "view",
      "type": "function"
    },
    {
      "constant": true,
      "inputs": [],
      "name": "PRESALE_BONUS",
      "outputs": [
        {
          "name": "",
          "type": "uint256"
        }
      ],
      "payable": false,
      "stateMutability": "view",
      "type": "function"
    },
    {
      "constant": true,
      "inputs": [],
      "name": "rate",
      "outputs": [
        {
          "name": "",
          "type": "uint256"
        }
      ],
      "payable": false,
      "stateMutability": "view",
      "type": "function"
    },
    {
      "constant": false,
      "inputs": [
        {
          "name": "_minter",
          "type": "address"
        }
      ],
      "name": "removeMinter",
      "outputs": [],
      "payable": false,
      "stateMutability": "nonpayable",
      "type": "function"
    },
    {
      "constant": true,
      "inputs": [
        {
          "name": "",
          "type": "address"
        }
      ],
      "name": "whitelistManagers",
      "outputs": [
        {
          "name": "",
          "type": "bool"
        }
      ],
      "payable": false,
      "stateMutability": "view",
      "type": "function"
    },
    {
      "constant": false,
      "inputs": [
        {
          "name": "beneficiaries",
          "type": "address[]"
        },
        {
          "name": "amount",
          "type": "uint256[]"
        }
      ],
      "name": "createBountyTokenToMany",
      "outputs": [
        {
          "name": "",
          "type": "bool"
        }
      ],
      "payable": false,
      "stateMutability": "nonpayable",
      "type": "function"
    },
    {
      "constant": true,
      "inputs": [],
      "name": "cap",
      "outputs": [
        {
          "name": "",
          "type": "uint256"
        }
      ],
      "payable": false,
      "stateMutability": "view",
      "type": "function"
    },
    {
      "constant": false,
      "inputs": [
        {
          "name": "_manager",
          "type": "address"
        }
      ],
      "name": "addWhitelistManager",
      "outputs": [],
      "payable": false,
      "stateMutability": "nonpayable",
      "type": "function"
    },
    {
      "constant": true,
      "inputs": [],
      "name": "weiRaised",
      "outputs": [
        {
          "name": "",
          "type": "uint256"
        }
      ],
      "payable": false,
      "stateMutability": "view",
      "type": "function"
    },
    {
      "constant": true,
      "inputs": [],
      "name": "totalMintedBountyTokens",
      "outputs": [
        {
          "name": "",
          "type": "uint256"
        }
      ],
      "payable": false,
      "stateMutability": "view",
      "type": "function"
    },
    {
      "constant": true,
      "inputs": [],
      "name": "closingTime",
      "outputs": [
        {
          "name": "",
          "type": "uint256"
        }
      ],
      "payable": false,
      "stateMutability": "view",
      "type": "function"
    },
    {
      "constant": false,
      "inputs": [],
      "name": "finalize",
      "outputs": [],
      "payable": false,
      "stateMutability": "nonpayable",
      "type": "function"
    },
    {
      "constant": true,
      "inputs": [],
      "name": "PHASE_1_CAP",
      "outputs": [
        {
          "name": "",
          "type": "uint256"
        }
      ],
      "payable": false,
      "stateMutability": "view",
      "type": "function"
    },
    {
      "constant": true,
      "inputs": [],
      "name": "wallet",
      "outputs": [
        {
          "name": "",
          "type": "address"
        }
      ],
      "payable": false,
      "stateMutability": "view",
      "type": "function"
    },
    {
      "constant": true,
      "inputs": [],
      "name": "PHASE_3_DURATION",
      "outputs": [
        {
          "name": "",
          "type": "uint256"
        }
      ],
      "payable": false,
      "stateMutability": "view",
      "type": "function"
    },
    {
      "constant": true,
      "inputs": [],
      "name": "reservedForTeamTokens",
      "outputs": [
        {
          "name": "",
          "type": "uint256"
        }
      ],
      "payable": false,
      "stateMutability": "view",
      "type": "function"
    },
    {
      "constant": true,
      "inputs": [],
      "name": "capForSale",
      "outputs": [
        {
          "name": "",
          "type": "uint256"
        }
      ],
      "payable": false,
      "stateMutability": "view",
      "type": "function"
    },
    {
      "constant": true,
      "inputs": [],
      "name": "getRate",
      "outputs": [
        {
          "name": "",
          "type": "uint256"
        }
      ],
      "payable": false,
      "stateMutability": "view",
      "type": "function"
    },
    {
      "constant": true,
      "inputs": [],
      "name": "PHASE_1_DURATION",
      "outputs": [
        {
          "name": "",
          "type": "uint256"
        }
      ],
      "payable": false,
      "stateMutability": "view",
      "type": "function"
    },
    {
      "constant": false,
      "inputs": [
        {
          "name": "beneficiaries",
          "type": "address[]"
        },
        {
          "name": "amount",
          "type": "uint256[]"
        }
      ],
      "name": "createFiatTokenToMany",
      "outputs": [
        {
          "name": "",
          "type": "bool"
        }
      ],
      "payable": false,
      "stateMutability": "nonpayable",
      "type": "function"
    },
    {
      "constant": true,
      "inputs": [],
      "name": "PHASE_2_BONUS",
      "outputs": [
        {
          "name": "",
          "type": "uint256"
        }
      ],
      "payable": false,
      "stateMutability": "view",
      "type": "function"
    },
    {
      "constant": false,
      "inputs": [
        {
          "name": "_newRate",
          "type": "uint256"
        }
      ],
      "name": "changeRate",
      "outputs": [
        {
          "name": "",
          "type": "bool"
        }
      ],
      "payable": false,
      "stateMutability": "nonpayable",
      "type": "function"
    },
    {
      "constant": true,
      "inputs": [],
      "name": "PRIVATE_SALE_CAP",
      "outputs": [
        {
          "name": "",
          "type": "uint256"
        }
      ],
      "payable": false,
      "stateMutability": "view",
      "type": "function"
    },
    {
      "constant": false,
      "inputs": [
        {
          "name": "_beneficiary",
          "type": "address"
        }
      ],
      "name": "removeFromWhitelist",
      "outputs": [],
      "payable": false,
      "stateMutability": "nonpayable",
      "type": "function"
    },
    {
      "constant": true,
      "inputs": [],
      "name": "PRIVATE_SALE_DURATION",
      "outputs": [
        {
          "name": "",
          "type": "uint256"
        }
      ],
      "payable": false,
      "stateMutability": "view",
      "type": "function"
    },
    {
      "constant": false,
      "inputs": [
        {
          "name": "_beneficiaries",
          "type": "address[]"
        }
      ],
      "name": "addManyToWhitelist",
      "outputs": [],
      "payable": false,
      "stateMutability": "nonpayable",
      "type": "function"
    },
    {
      "constant": true,
      "inputs": [],
      "name": "isFinalized",
      "outputs": [
        {
          "name": "",
          "type": "bool"
        }
      ],
      "payable": false,
      "stateMutability": "view",
      "type": "function"
    },
    {
      "constant": true,
      "inputs": [],
      "name": "owner",
      "outputs": [
        {
          "name": "",
          "type": "address"
        }
      ],
      "payable": false,
      "stateMutability": "view",
      "type": "function"
    },
    {
      "constant": true,
      "inputs": [],
      "name": "PHASE_2_DURATION",
      "outputs": [
        {
          "name": "",
          "type": "uint256"
        }
      ],
      "payable": false,
      "stateMutability": "view",
      "type": "function"
    },
    {
      "constant": true,
      "inputs": [],
      "name": "PRESALE_DURATION",
      "outputs": [
        {
          "name": "",
          "type": "uint256"
        }
      ],
      "payable": false,
      "stateMutability": "view",
      "type": "function"
    },
    {
      "constant": false,
      "inputs": [
        {
          "name": "_minter",
          "type": "address"
        }
      ],
      "name": "addMinter",
      "outputs": [],
      "payable": false,
      "stateMutability": "nonpayable",
      "type": "function"
    },
    {
      "constant": false,
      "inputs": [
        {
          "name": "extentionInSeconds",
          "type": "uint256"
        }
      ],
      "name": "extendPrivateSaleDuration",
      "outputs": [
        {
          "name": "",
          "type": "bool"
        }
      ],
      "payable": false,
      "stateMutability": "nonpayable",
      "type": "function"
    },
    {
      "constant": true,
      "inputs": [
        {
          "name": "",
          "type": "address"
        }
      ],
      "name": "whitelist",
      "outputs": [
        {
          "name": "",
          "type": "bool"
        }
      ],
      "payable": false,
      "stateMutability": "view",
      "type": "function"
    },
    {
      "constant": true,
      "inputs": [],
      "name": "openingTime",
      "outputs": [
        {
          "name": "",
          "type": "uint256"
        }
      ],
      "payable": false,
      "stateMutability": "view",
      "type": "function"
    },
    {
      "constant": true,
      "inputs": [],
      "name": "PRESALE_CAP",
      "outputs": [
        {
          "name": "",
          "type": "uint256"
        }
      ],
      "payable": false,
      "stateMutability": "view",
      "type": "function"
    },
    {
      "constant": false,
      "inputs": [
        {
          "name": "beneficiary",
          "type": "address"
        },
        {
          "name": "amount",
          "type": "uint256"
        }
      ],
      "name": "createFiatToken",
      "outputs": [
        {
          "name": "",
          "type": "bool"
        }
      ],
      "payable": false,
      "stateMutability": "nonpayable",
      "type": "function"
    },
    {
      "constant": true,
      "inputs": [],
      "name": "PHASE_3_BONUS",
      "outputs": [
        {
          "name": "",
          "type": "uint256"
        }
      ],
      "payable": false,
      "stateMutability": "view",
      "type": "function"
    },
    {
      "constant": true,
      "inputs": [],
      "name": "PHASE_2_CAP",
      "outputs": [
        {
          "name": "",
          "type": "uint256"
        }
      ],
      "payable": false,
      "stateMutability": "view",
      "type": "function"
    },
    {
      "constant": false,
      "inputs": [
        {
          "name": "_manager",
          "type": "address"
        }
      ],
      "name": "removeWhitelistManager",
      "outputs": [],
      "payable": false,
      "stateMutability": "nonpayable",
      "type": "function"
    },
    {
      "constant": true,
      "inputs": [],
      "name": "PHASE_3_CAP",
      "outputs": [
        {
          "name": "",
          "type": "uint256"
        }
      ],
      "payable": false,
      "stateMutability": "view",
      "type": "function"
    },
    {
      "constant": true,
      "inputs": [],
      "name": "PHASE_1_BONUS",
      "outputs": [
        {
          "name": "",
          "type": "uint256"
        }
      ],
      "payable": false,
      "stateMutability": "view",
      "type": "function"
    },
    {
      "constant": false,
      "inputs": [
        {
          "name": "_beneficiary",
          "type": "address"
        }
      ],
      "name": "addToWhitelist",
      "outputs": [],
      "payable": false,
      "stateMutability": "nonpayable",
      "type": "function"
    },
    {
      "constant": true,
      "inputs": [],
      "name": "bountyTokensCap",
      "outputs": [
        {
          "name": "",
          "type": "uint256"
        }
      ],
      "payable": false,
      "stateMutability": "view",
      "type": "function"
    },
    {
      "constant": false,
      "inputs": [
        {
          "name": "beneficiary",
          "type": "address"
        }
      ],
      "name": "buyTokens",
      "outputs": [],
      "payable": true,
      "stateMutability": "payable",
      "type": "function"
    },
    {
      "constant": false,
      "inputs": [
        {
          "name": "beneficiary",
          "type": "address"
        },
        {
          "name": "amount",
          "type": "uint256"
        }
      ],
      "name": "createBountyToken",
      "outputs": [
        {
          "name": "",
          "type": "bool"
        }
      ],
      "payable": false,
      "stateMutability": "nonpayable",
      "type": "function"
    },
    {
      "constant": false,
      "inputs": [
        {
          "name": "newOwner",
          "type": "address"
        }
      ],
      "name": "transferOwnership",
      "outputs": [],
      "payable": false,
      "stateMutability": "nonpayable",
      "type": "function"
    },
    {
      "constant": true,
      "inputs": [
        {
          "name": "",
          "type": "address"
        }
      ],
      "name": "minters",
      "outputs": [
        {
          "name": "",
          "type": "bool"
        }
      ],
      "payable": false,
      "stateMutability": "view",
      "type": "function"
    },
    {
      "constant": true,
      "inputs": [],
      "name": "token",
      "outputs": [
        {
          "name": "",
          "type": "address"
        }
      ],
      "payable": false,
      "stateMutability": "view",
      "type": "function"
    },
    {
      "inputs": [
        {
          "name": "_rate",
          "type": "uint256"
        },
        {
          "name": "_wallet",
          "type": "address"
        },
        {
          "name": "_token",
          "type": "address"
        },
        {
          "name": "_openingTime",
          "type": "uint256"
        },
        {
          "name": "_closingTime",
          "type": "uint256"
        }
      ],
      "payable": false,
      "stateMutability": "nonpayable",
      "type": "constructor"
    },
    {
      "payable": true,
      "stateMutability": "payable",
      "type": "fallback"
    },
    {
      "anonymous": false,
      "inputs": [
        {
          "indexed": false,
          "name": "sender",
          "type": "address"
        },
        {
          "indexed": false,
          "name": "beficiary",
          "type": "address"
        },
        {
          "indexed": false,
          "name": "amount",
          "type": "uint256"
        }
      ],
      "name": "LogFiatTokenMinted",
      "type": "event"
    },
    {
      "anonymous": false,
      "inputs": [
        {
          "indexed": false,
          "name": "sender",
          "type": "address"
        },
        {
          "indexed": false,
          "name": "beneficiaries",
          "type": "address[]"
        },
        {
          "indexed": false,
          "name": "amount",
          "type": "uint256[]"
        }
      ],
      "name": "LogFiatTokenMintedToMany",
      "type": "event"
    },
    {
      "anonymous": false,
      "inputs": [
        {
          "indexed": false,
          "name": "minter",
          "type": "address"
        },
        {
          "indexed": false,
          "name": "beneficiary",
          "type": "address"
        },
        {
          "indexed": false,
          "name": "amount",
          "type": "uint256"
        }
      ],
      "name": "LogBountyTokenMinted",
      "type": "event"
    },
    {
      "anonymous": false,
      "inputs": [
        {
          "indexed": false,
          "name": "sender",
          "type": "address"
        },
        {
          "indexed": false,
          "name": "beneficiaries",
          "type": "address[]"
        },
        {
          "indexed": false,
          "name": "amount",
          "type": "uint256[]"
        }
      ],
      "name": "LogBountyTokenMintedToMany",
      "type": "event"
    },
    {
      "anonymous": false,
      "inputs": [
        {
          "indexed": false,
          "name": "extentionInDays",
          "type": "uint256"
        }
      ],
      "name": "LogPrivateSaleExtended",
      "type": "event"
    },
    {
      "anonymous": false,
      "inputs": [
        {
          "indexed": false,
          "name": "rate",
          "type": "uint256"
        }
      ],
      "name": "LogRateChanged",
      "type": "event"
    },
    {
      "anonymous": false,
      "inputs": [
        {
          "indexed": false,
          "name": "minterAdded",
          "type": "address"
        }
      ],
      "name": "LogMinterAdded",
      "type": "event"
    },
    {
      "anonymous": false,
      "inputs": [
        {
          "indexed": false,
          "name": "minterRemoved",
          "type": "address"
        }
      ],
      "name": "LogMinterRemoved",
      "type": "event"
    },
    {
      "anonymous": false,
      "inputs": [],
      "name": "Finalized",
      "type": "event"
    },
    {
      "anonymous": false,
      "inputs": [
        {
          "indexed": true,
          "name": "previousOwner",
          "type": "address"
        },
        {
          "indexed": true,
          "name": "newOwner",
          "type": "address"
        }
      ],
      "name": "OwnershipTransferred",
      "type": "event"
    },
    {
      "anonymous": false,
      "inputs": [
        {
          "indexed": true,
          "name": "purchaser",
          "type": "address"
        },
        {
          "indexed": true,
          "name": "beneficiary",
          "type": "address"
        },
        {
          "indexed": false,
          "name": "value",
          "type": "uint256"
        },
        {
          "indexed": false,
          "name": "amount",
          "type": "uint256"
        }
      ],
      "name": "TokenPurchase",
      "type": "event"
    }
  ],
  "bytecode": "0x60806040526000600660146101000a81548160ff0219169083151502179055506a52b7d2dcc80cd2e40000006007556a3abad5b65ad5e7a70000006008556a0422ca8b0a00a4250000006009556a17fcfd266d36eb3d000000600a553480156200006857600080fd5b5060405160a08062003337833981018060405281019080805190602001909291908051906020019092919080519060200190929190805190602001909291908051906020019092919050505084848484848181868686600083111515620000ce57600080fd5b600073ffffffffffffffffffffffffffffffffffffffff168273ffffffffffffffffffffffffffffffffffffffff16141515156200010b57600080fd5b600073ffffffffffffffffffffffffffffffffffffffff168173ffffffffffffffffffffffffffffffffffffffff16141515156200014857600080fd5b8260028190555081600160006101000a81548173ffffffffffffffffffffffffffffffffffffffff021916908373ffffffffffffffffffffffffffffffffffffffff160217905550806000806101000a81548173ffffffffffffffffffffffffffffffffffffffff021916908373ffffffffffffffffffffffffffffffffffffffff160217905550505050428210151515620001e357600080fd5b818110151515620001f357600080fd5b8160048190555080600581905550505033600660006101000a81548173ffffffffffffffffffffffffffffffffffffffff021916908373ffffffffffffffffffffffffffffffffffffffff1602179055506200026a624f1a008362000280640100000000026200268e179091906401000000009004565b600c81905550505050505050505050506200029d565b600081830190508281101515156200029457fe5b80905092915050565b61308a80620002ad6000396000f300608060405260043610610250576000357c0100000000000000000000000000000000000000000000000000000000900463ffffffff1680626c2abc1461025b5780631515bc2b146102865780631b3fddb8146102b55780632c4e722e146102e05780633092afd51461030b57806331e8e0a21461034e578063352cf07a146103a9578063355274ea1461046a57806336facd8d146104955780634042b66f146104d8578063431454fb146105035780634b6753bc1461052e5780634bb278f3146105595780634f99dccc14610570578063521eb2731461059b5780635539aa86146105f25780635b909e2d1461061d5780636178dbeb14610648578063679aefce146106735780636839c1bd1461069e5780636b7837d4146106c957806373d660a41461078a57806374e7493b146107b55780637de528ad146107fa5780638ab1d681146108255780638b3f520e146108685780638c10671c146108935780638d4e4083146108ce5780638da5cb5b146108fd578063938ece8914610954578063945e40131461097f578063983b2d56146109aa578063993721d4146109ed5780639b19251a14610a32578063b7a8807c14610a8d578063bd94fafc14610ab8578063c28f06f714610ae3578063d020f37814610b48578063d1f5ac1114610b73578063d81685fc14610b9e578063da0e365c14610be1578063dad6bca014610c0c578063e43252d714610c37578063ec0290ad14610c7a578063ec8ac4d814610ca5578063f1a6373314610cdb578063f2fde38b14610d40578063f46eccc414610d83578063fc0c546a14610dde575b61025933610e35565b005b34801561026757600080fd5b50610270610f5f565b6040518082815260200191505060405180910390f35b34801561029257600080fd5b5061029b610f65565b604051808215151515815260200191505060405180910390f35b3480156102c157600080fd5b506102ca610f71565b6040518082815260200191505060405180910390f35b3480156102ec57600080fd5b506102f5610f76565b6040518082815260200191505060405180910390f35b34801561031757600080fd5b5061034c600480360381019080803573ffffffffffffffffffffffffffffffffffffffff169060200190929190505050610f7c565b005b34801561035a57600080fd5b5061038f600480360381019080803573ffffffffffffffffffffffffffffffffffffffff169060200190929190505050611096565b604051808215151515815260200191505060405180910390f35b3480156103b557600080fd5b5061045060048036038101908080359060200190820180359060200190808060200260200160405190810160405280939291908181526020018383602002808284378201915050505050509192919290803590602001908201803590602001908080602002602001604051908101604052809392919081815260200183836020028082843782019150505050505091929192905050506110b6565b604051808215151515815260200191505060405180910390f35b34801561047657600080fd5b5061047f61126e565b6040518082815260200191505060405180910390f35b3480156104a157600080fd5b506104d6600480360381019080803573ffffffffffffffffffffffffffffffffffffffff169060200190929190505050611274565b005b3480156104e457600080fd5b506104ed611367565b6040518082815260200191505060405180910390f35b34801561050f57600080fd5b5061051861136d565b6040518082815260200191505060405180910390f35b34801561053a57600080fd5b50610543611373565b6040518082815260200191505060405180910390f35b34801561056557600080fd5b5061056e611379565b005b34801561057c57600080fd5b50610585611455565b6040518082815260200191505060405180910390f35b3480156105a757600080fd5b506105b061147e565b604051808273ffffffffffffffffffffffffffffffffffffffff1673ffffffffffffffffffffffffffffffffffffffff16815260200191505060405180910390f35b3480156105fe57600080fd5b506106076114a4565b6040518082815260200191505060405180910390f35b34801561062957600080fd5b506106326114b4565b6040518082815260200191505060405180910390f35b34801561065457600080fd5b5061065d6114ba565b6040518082815260200191505060405180910390f35b34801561067f57600080fd5b506106886114c0565b6040518082815260200191505060405180910390f35b3480156106aa57600080fd5b506106b3611981565b6040518082815260200191505060405180910390f35b3480156106d557600080fd5b50610770600480360381019080803590602001908201803590602001908080602002602001604051908101604052809392919081815260200183836020028082843782019150505050505091929192908035906020019082018035906020019080806020026020016040519081016040528093929190818152602001838360200280828437820191505050505050919291929050505061198a565b604051808215151515815260200191505060405180910390f35b34801561079657600080fd5b5061079f611b42565b6040518082815260200191505060405180910390f35b3480156107c157600080fd5b506107e060048036038101908080359060200190929190505050611b47565b604051808215151515815260200191505060405180910390f35b34801561080657600080fd5b5061080f611c0d565b6040518082815260200191505060405180910390f35b34801561083157600080fd5b50610866600480360381019080803573ffffffffffffffffffffffffffffffffffffffff169060200190929190505050611c1c565b005b34801561087457600080fd5b5061087d611ccf565b6040518082815260200191505060405180910390f35b34801561089f57600080fd5b506108cc600480360381019080803590602001908201803590602001919091929391929390505050611cd6565b005b3480156108da57600080fd5b506108e3611dd4565b604051808215151515815260200191505060405180910390f35b34801561090957600080fd5b50610912611de7565b604051808273ffffffffffffffffffffffffffffffffffffffff1673ffffffffffffffffffffffffffffffffffffffff16815260200191505060405180910390f35b34801561096057600080fd5b50610969611e0d565b6040518082815260200191505060405180910390f35b34801561098b57600080fd5b50610994611e1b565b6040518082815260200191505060405180910390f35b3480156109b657600080fd5b506109eb600480360381019080803573ffffffffffffffffffffffffffffffffffffffff169060200190929190505050611e22565b005b3480156109f957600080fd5b50610a1860048036038101908080359060200190929190505050611f78565b604051808215151515815260200191505060405180910390f35b348015610a3e57600080fd5b50610a73600480360381019080803573ffffffffffffffffffffffffffffffffffffffff16906020019092919050505061205d565b604051808215151515815260200191505060405180910390f35b348015610a9957600080fd5b50610aa261207d565b6040518082815260200191505060405180910390f35b348015610ac457600080fd5b50610acd612083565b6040518082815260200191505060405180910390f35b348015610aef57600080fd5b50610b2e600480360381019080803573ffffffffffffffffffffffffffffffffffffffff1690602001909291908035906020019092919050505061209f565b604051808215151515815260200191505060405180910390f35b348015610b5457600080fd5b50610b5d6121c0565b6040518082815260200191505060405180910390f35b348015610b7f57600080fd5b50610b886121c5565b6040518082815260200191505060405180910390f35b348015610baa57600080fd5b50610bdf600480360381019080803573ffffffffffffffffffffffffffffffffffffffff1690602001909291905050506121fb565b005b348015610bed57600080fd5b50610bf66122b2565b6040518082815260200191505060405180910390f35b348015610c1857600080fd5b50610c216122ea565b6040518082815260200191505060405180910390f35b348015610c4357600080fd5b50610c78600480360381019080803573ffffffffffffffffffffffffffffffffffffffff1690602001909291905050506122ef565b005b348015610c8657600080fd5b50610c8f6123a2565b6040518082815260200191505060405180910390f35b610cd9600480360381019080803573ffffffffffffffffffffffffffffffffffffffff169060200190929190505050610e35565b005b348015610ce757600080fd5b50610d26600480360381019080803573ffffffffffffffffffffffffffffffffffffffff169060200190929190803590602001909291905050506123a8565b604051808215151515815260200191505060405180910390f35b348015610d4c57600080fd5b50610d81600480360381019080803573ffffffffffffffffffffffffffffffffffffffff1690602001909291905050506124c9565b005b348015610d8f57600080fd5b50610dc4600480360381019080803573ffffffffffffffffffffffffffffffffffffffff169060200190929190505050612621565b604051808215151515815260200191505060405180910390f35b348015610dea57600080fd5b50610df3612641565b604051808273ffffffffffffffffffffffffffffffffffffffff1673ffffffffffffffffffffffffffffffffffffffff16815260200191505060405180910390f35b6000662386f26fc100003410151515610e4d57600080fd5b680d8d726b7177a800003411151515610e6557600080fd5b610e6e34612666565b9050600854610f45826000809054906101000a900473ffffffffffffffffffffffffffffffffffffffff1673ffffffffffffffffffffffffffffffffffffffff166318160ddd6040518163ffffffff167c0100000000000000000000000000000000000000000000000000000000028152600401602060405180830381600087803b158015610efc57600080fd5b505af1158015610f10573d6000803e3d6000fd5b505050506040513d6020811015610f2657600080fd5b810190808051906020019092919050505061268e90919063ffffffff16565b11151515610f5257600080fd5b610f5b826126aa565b5050565b600c5481565b60006005544211905090565b601e81565b60025481565b600660009054906101000a900473ffffffffffffffffffffffffffffffffffffffff1673ffffffffffffffffffffffffffffffffffffffff163373ffffffffffffffffffffffffffffffffffffffff16141515610fd857600080fd5b6000600d60008373ffffffffffffffffffffffffffffffffffffffff1673ffffffffffffffffffffffffffffffffffffffff16815260200190815260200160002060006101000a81548160ff0219169083151502179055507f4f2e45736bb0b7476bb1aaf6ee5b6f4ae1783384c4f707a4158e14d64d7eda0481604051808273ffffffffffffffffffffffffffffffffffffffff1673ffffffffffffffffffffffffffffffffffffffff16815260200191505060405180910390a150565b600f6020528060005260406000206000915054906101000a900460ff1681565b600080600d60003373ffffffffffffffffffffffffffffffffffffffff1673ffffffffffffffffffffffffffffffffffffffff16815260200190815260200160002060009054906101000a900460ff16151561111157600080fd5b61111b8484612778565b600090505b835181101561116e57611161848281518110151561113a57fe5b90602001906020020151848381518110151561115257fe5b906020019060200201516127c0565b8080600101915050611120565b7f737d5cf083c6df12390be993628fed9e8cffb9adcdeab9b73a4d388219b9ec31338585604051808473ffffffffffffffffffffffffffffffffffffffff1673ffffffffffffffffffffffffffffffffffffffff1681526020018060200180602001838103835285818151815260200191508051906020019060200280838360005b8381101561120b5780820151818401526020810190506111f0565b50505050905001838103825284818151815260200191508051906020019060200280838360005b8381101561124d578082015181840152602081019050611232565b505050509050019550505050505060405180910390a1600191505092915050565b60075481565b600660009054906101000a900473ffffffffffffffffffffffffffffffffffffffff1673ffffffffffffffffffffffffffffffffffffffff163373ffffffffffffffffffffffffffffffffffffffff161415156112d057600080fd5b600073ffffffffffffffffffffffffffffffffffffffff168173ffffffffffffffffffffffffffffffffffffffff161415151561130c57600080fd5b6001600f60008373ffffffffffffffffffffffffffffffffffffffff1673ffffffffffffffffffffffffffffffffffffffff16815260200190815260200160002060006101000a81548160ff02191690831515021790555050565b60035481565b600b5481565b60055481565b600660009054906101000a900473ffffffffffffffffffffffffffffffffffffffff1673ffffffffffffffffffffffffffffffffffffffff163373ffffffffffffffffffffffffffffffffffffffff161415156113d557600080fd5b600660149054906101000a900460ff161515156113f157600080fd5b6113f9610f65565b151561140457600080fd5b61140c6129e6565b7f6823b073d48d6e3a7d385eeb601452d680e74bb46afe3255a7d778f3a9b1768160405160405180910390a16001600660146101000a81548160ff021916908315150217905550565b6a084595161401484a0000006a0422ca8b0a00a4250000006a1581b6d300d0225a000000010181565b600160009054906101000a900473ffffffffffffffffffffffffffffffffffffffff1681565b6212750080621275008001010181565b600a5481565b60085481565b6000600c54421115156115af576a1581b6d300d0225a0000006000809054906101000a900473ffffffffffffffffffffffffffffffffffffffff1673ffffffffffffffffffffffffffffffffffffffff166318160ddd6040518163ffffffff167c0100000000000000000000000000000000000000000000000000000000028152600401602060405180830381600087803b15801561155e57600080fd5b505af1158015611572573d6000803e3d6000fd5b505050506040513d602081101561158857600080fd5b81019080805190602001909291905050501015156115a557600080fd5b600254905061197e565b6115c762127500600c5461268e90919063ffffffff16565b421115156116d9576a0422ca8b0a00a4250000006a1581b6d300d0225a000000016000809054906101000a900473ffffffffffffffffffffffffffffffffffffffff1673ffffffffffffffffffffffffffffffffffffffff166318160ddd6040518163ffffffff167c0100000000000000000000000000000000000000000000000000000000028152600401602060405180830381600087803b15801561166d57600080fd5b505af1158015611681573d6000803e3d6000fd5b505050506040513d602081101561169757600080fd5b81019080805190602001909291905050501015156116b457600080fd5b6116d26116c1601e612b83565b60025461268e90919063ffffffff16565b905061197e565b6116f3621275008001600c5461268e90919063ffffffff16565b42111515611812576a084595161401484a0000006a0422ca8b0a00a4250000006a1581b6d300d0225a00000001016000809054906101000a900473ffffffffffffffffffffffffffffffffffffffff1673ffffffffffffffffffffffffffffffffffffffff166318160ddd6040518163ffffffff167c0100000000000000000000000000000000000000000000000000000000028152600401602060405180830381600087803b1580156117a657600080fd5b505af11580156117ba573d6000803e3d6000fd5b505050506040513d60208110156117d057600080fd5b81019080805190602001909291905050501015156117ed57600080fd5b61180b6117fa6014612b83565b60025461268e90919063ffffffff16565b905061197e565b6118316212750080621275000101600c5461268e90919063ffffffff16565b4211151561195d576a0a56fa5b99019a5c8000006a084595161401484a0000006a0422ca8b0a00a4250000006a1581b6d300d0225a0000000101016000809054906101000a900473ffffffffffffffffffffffffffffffffffffffff1673ffffffffffffffffffffffffffffffffffffffff166318160ddd6040518163ffffffff167c0100000000000000000000000000000000000000000000000000000000028152600401602060405180830381600087803b1580156118f157600080fd5b505af1158015611905573d6000803e3d6000fd5b505050506040513d602081101561191b57600080fd5b810190808051906020019092919050505010151561193857600080fd5b611956611945600a612b83565b60025461268e90919063ffffffff16565b905061197e565b61197b61196a6005612b83565b60025461268e90919063ffffffff16565b90505b90565b62127500800181565b600080600d60003373ffffffffffffffffffffffffffffffffffffffff1673ffffffffffffffffffffffffffffffffffffffff16815260200190815260200160002060009054906101000a900460ff1615156119e557600080fd5b6119ef8484612778565b600090505b8351811015611a4257611a358482815181101515611a0e57fe5b906020019060200201518483815181101515611a2657fe5b90602001906020020151612bb4565b80806001019150506119f4565b7fb753273e44b9730704674aac88c238e01a104313f167154be5853064e1dd66f0338585604051808473ffffffffffffffffffffffffffffffffffffffff1673ffffffffffffffffffffffffffffffffffffffff1681526020018060200180602001838103835285818151815260200191508051906020019060200280838360005b83811015611adf578082015181840152602081019050611ac4565b50505050905001838103825284818151815260200191508051906020019060200280838360005b83811015611b21578082015181840152602081019050611b06565b505050509050019550505050505060405180910390a1600191505092915050565b600a81565b6000600660009054906101000a900473ffffffffffffffffffffffffffffffffffffffff1673ffffffffffffffffffffffffffffffffffffffff163373ffffffffffffffffffffffffffffffffffffffff16141515611ba557600080fd5b600c544211151515611bb657600080fd5b60008214151515611bc657600080fd5b816002819055507f9d6ef0d454e23e234e8c1cf70cee49a44226ffb036017442229a7a5bd1d0957e826040518082815260200191505060405180910390a160019050919050565b6a1581b6d300d0225a00000081565b600f60003373ffffffffffffffffffffffffffffffffffffffff1673ffffffffffffffffffffffffffffffffffffffff16815260200190815260200160002060009054906101000a900460ff161515611c7457600080fd5b6000600e60008373ffffffffffffffffffffffffffffffffffffffff1673ffffffffffffffffffffffffffffffffffffffff16815260200190815260200160002060006101000a81548160ff02191690831515021790555050565b624f1a0081565b6000600f60003373ffffffffffffffffffffffffffffffffffffffff1673ffffffffffffffffffffffffffffffffffffffff16815260200190815260200160002060009054906101000a900460ff161515611d3057600080fd5b600090505b82829050811015611dcf576001600e60008585858181101515611d5457fe5b9050602002013573ffffffffffffffffffffffffffffffffffffffff1673ffffffffffffffffffffffffffffffffffffffff1673ffffffffffffffffffffffffffffffffffffffff16815260200190815260200160002060006101000a81548160ff0219169083151502179055508080600101915050611d35565b505050565b600660149054906101000a900460ff1681565b600660009054906101000a900473ffffffffffffffffffffffffffffffffffffffff1681565b621275008062127500010181565b6212750081565b600660009054906101000a900473ffffffffffffffffffffffffffffffffffffffff1673ffffffffffffffffffffffffffffffffffffffff163373ffffffffffffffffffffffffffffffffffffffff16141515611e7e57600080fd5b600073ffffffffffffffffffffffffffffffffffffffff168173ffffffffffffffffffffffffffffffffffffffff1614151515611eba57600080fd5b6001600d60008373ffffffffffffffffffffffffffffffffffffffff1673ffffffffffffffffffffffffffffffffffffffff16815260200190815260200160002060006101000a81548160ff0219169083151502179055507ff520dd67ceedf317bc1fd6202af56f22510a422039748e1dc927ad4f5dcfd51c81604051808273ffffffffffffffffffffffffffffffffffffffff1673ffffffffffffffffffffffffffffffffffffffff16815260200191505060405180910390a150565b6000600660009054906101000a900473ffffffffffffffffffffffffffffffffffffffff1673ffffffffffffffffffffffffffffffffffffffff163373ffffffffffffffffffffffffffffffffffffffff16141515611fd657600080fd5b600c544211151515611fe757600080fd5b611ffc82600c5461268e90919063ffffffff16565b600c819055506120178260055461268e90919063ffffffff16565b6005819055507f7df78e9fd0846ddf39f6308d970e33c9c54abfcfb0090cb6c0d716f7986f8b29826040518082815260200191505060405180910390a160019050919050565b600e6020528060005260406000206000915054906101000a900460ff1681565b60045481565b6a0422ca8b0a00a4250000006a1581b6d300d0225a0000000181565b6000600d60003373ffffffffffffffffffffffffffffffffffffffff1673ffffffffffffffffffffffffffffffffffffffff16815260200190815260200160002060009054906101000a900460ff1615156120f957600080fd5b612101610f65565b15151561210d57600080fd5b6121178383612bb4565b7f95a520a21ce4355b93aeb1d7ee5a2c3fc33509998055b6d5779ef10097a52cc2338484604051808473ffffffffffffffffffffffffffffffffffffffff1673ffffffffffffffffffffffffffffffffffffffff1681526020018373ffffffffffffffffffffffffffffffffffffffff1673ffffffffffffffffffffffffffffffffffffffff168152602001828152602001935050505060405180910390a16001905092915050565b600581565b6a0a56fa5b99019a5c8000006a084595161401484a0000006a0422ca8b0a00a4250000006a1581b6d300d0225a00000001010181565b600660009054906101000a900473ffffffffffffffffffffffffffffffffffffffff1673ffffffffffffffffffffffffffffffffffffffff163373ffffffffffffffffffffffffffffffffffffffff1614151561225757600080fd5b6000600f60008373ffffffffffffffffffffffffffffffffffffffff1673ffffffffffffffffffffffffffffffffffffffff16815260200190815260200160002060006101000a81548160ff02191690831515021790555050565b6a0a56fa5b99019a5c800000806a084595161401484a0000006a0422ca8b0a00a4250000006a1581b6d300d0225a0000000101010181565b601481565b600f60003373ffffffffffffffffffffffffffffffffffffffff1673ffffffffffffffffffffffffffffffffffffffff16815260200190815260200160002060009054906101000a900460ff16151561234757600080fd5b6001600e60008373ffffffffffffffffffffffffffffffffffffffff1673ffffffffffffffffffffffffffffffffffffffff16815260200190815260200160002060006101000a81548160ff02191690831515021790555050565b60095481565b6000600d60003373ffffffffffffffffffffffffffffffffffffffff1673ffffffffffffffffffffffffffffffffffffffff16815260200190815260200160002060009054906101000a900460ff16151561240257600080fd5b61240a610f65565b15151561241657600080fd5b61242083836127c0565b7fda06cceac0e5d29c435bd56e522309bbd7c1a35f7192d1aa7b533903d94854f0338484604051808473ffffffffffffffffffffffffffffffffffffffff1673ffffffffffffffffffffffffffffffffffffffff1681526020018373ffffffffffffffffffffffffffffffffffffffff1673ffffffffffffffffffffffffffffffffffffffff168152602001828152602001935050505060405180910390a16001905092915050565b600660009054906101000a900473ffffffffffffffffffffffffffffffffffffffff1673ffffffffffffffffffffffffffffffffffffffff163373ffffffffffffffffffffffffffffffffffffffff1614151561252557600080fd5b600073ffffffffffffffffffffffffffffffffffffffff168173ffffffffffffffffffffffffffffffffffffffff161415151561256157600080fd5b8073ffffffffffffffffffffffffffffffffffffffff16600660009054906101000a900473ffffffffffffffffffffffffffffffffffffffff1673ffffffffffffffffffffffffffffffffffffffff167f8be0079c531659141344cd1fd0a4f28419497f9722a3daafe3b4186f6b6457e060405160405180910390a380600660006101000a81548173ffffffffffffffffffffffffffffffffffffffff021916908373ffffffffffffffffffffffffffffffffffffffff16021790555050565b600d6020528060005260406000206000915054906101000a900460ff1681565b6000809054906101000a900473ffffffffffffffffffffffffffffffffffffffff1681565b6000806126716114c0565b90506126868184612d9a90919063ffffffff16565b915050919050565b600081830190508281101515156126a157fe5b80905092915050565b6000803491506126ba8383612dd2565b6126c382612666565b90506126da8260035461268e90919063ffffffff16565b6003819055506126ea8382612e3a565b8273ffffffffffffffffffffffffffffffffffffffff163373ffffffffffffffffffffffffffffffffffffffff167f623b3804fa71d67900d064613da8f94b9617215ee90799290593e1745087ad188484604051808381526020018281526020019250505060405180910390a36127618383612e48565b612769612e4c565b6127738383612eb7565b505050565b612780610f65565b15151561278c57600080fd5b6000825111151561279c57600080fd5b600081511115156127ac57600080fd5b805182511415156127bc57600080fd5b5050565b600854612895826000809054906101000a900473ffffffffffffffffffffffffffffffffffffffff1673ffffffffffffffffffffffffffffffffffffffff166318160ddd6040518163ffffffff167c0100000000000000000000000000000000000000000000000000000000028152600401602060405180830381600087803b15801561284c57600080fd5b505af1158015612860573d6000803e3d6000fd5b505050506040513d602081101561287657600080fd5b810190808051906020019092919050505061268e90919063ffffffff16565b111515156128a257600080fd5b6009546128ba82600b5461268e90919063ffffffff16565b111515156128c757600080fd5b6000809054906101000a900473ffffffffffffffffffffffffffffffffffffffff1673ffffffffffffffffffffffffffffffffffffffff166340c10f1983836040518363ffffffff167c0100000000000000000000000000000000000000000000000000000000028152600401808373ffffffffffffffffffffffffffffffffffffffff1673ffffffffffffffffffffffffffffffffffffffff16815260200182815260200192505050602060405180830381600087803b15801561298b57600080fd5b505af115801561299f573d6000803e3d6000fd5b505050506040513d60208110156129b557600080fd5b8101908080519060200190929190505050506129dc81600b5461268e90919063ffffffff16565b600b819055505050565b6000809054906101000a900473ffffffffffffffffffffffffffffffffffffffff1673ffffffffffffffffffffffffffffffffffffffff16633f4ba83a6040518163ffffffff167c0100000000000000000000000000000000000000000000000000000000028152600401600060405180830381600087803b158015612a6b57600080fd5b505af1158015612a7f573d6000803e3d6000fd5b505050506000809054906101000a900473ffffffffffffffffffffffffffffffffffffffff1673ffffffffffffffffffffffffffffffffffffffff1663f2fde38b600660009054906101000a900473ffffffffffffffffffffffffffffffffffffffff166040518263ffffffff167c0100000000000000000000000000000000000000000000000000000000028152600401808273ffffffffffffffffffffffffffffffffffffffff1673ffffffffffffffffffffffffffffffffffffffff168152602001915050600060405180830381600087803b158015612b6157600080fd5b505af1158015612b75573d6000803e3d6000fd5b50505050612b81612ebb565b565b6000612bad6064612b9f84600254612d9a90919063ffffffff16565b612ebd90919063ffffffff16565b9050919050565b600854612c89826000809054906101000a900473ffffffffffffffffffffffffffffffffffffffff1673ffffffffffffffffffffffffffffffffffffffff166318160ddd6040518163ffffffff167c0100000000000000000000000000000000000000000000000000000000028152600401602060405180830381600087803b158015612c4057600080fd5b505af1158015612c54573d6000803e3d6000fd5b505050506040513d6020811015612c6a57600080fd5b810190808051906020019092919050505061268e90919063ffffffff16565b11151515612c9657600080fd5b6000809054906101000a900473ffffffffffffffffffffffffffffffffffffffff1673ffffffffffffffffffffffffffffffffffffffff166340c10f1983836040518363ffffffff167c0100000000000000000000000000000000000000000000000000000000028152600401808373ffffffffffffffffffffffffffffffffffffffff1673ffffffffffffffffffffffffffffffffffffffff16815260200182815260200192505050602060405180830381600087803b158015612d5a57600080fd5b505af1158015612d6e573d6000803e3d6000fd5b505050506040513d6020811015612d8457600080fd5b8101908080519060200190929190505050505050565b600080831415612dad5760009050612dcc565b8183029050818382811515612dbe57fe5b04141515612dc857fe5b8090505b92915050565b81600e60008273ffffffffffffffffffffffffffffffffffffffff1673ffffffffffffffffffffffffffffffffffffffff16815260200190815260200160002060009054906101000a900460ff161515612e2b57600080fd5b612e358383612ed3565b505050565b612e448282612f00565b5050565b5050565b600160009054906101000a900473ffffffffffffffffffffffffffffffffffffffff1673ffffffffffffffffffffffffffffffffffffffff166108fc349081150290604051600060405180830381858888f19350505050158015612eb4573d6000803e3d6000fd5b50565b5050565b565b60008183811515612eca57fe5b04905092915050565b6004544210158015612ee757506005544211155b1515612ef257600080fd5b612efc828261300e565b5050565b6000809054906101000a900473ffffffffffffffffffffffffffffffffffffffff1673ffffffffffffffffffffffffffffffffffffffff166340c10f1983836040518363ffffffff167c0100000000000000000000000000000000000000000000000000000000028152600401808373ffffffffffffffffffffffffffffffffffffffff1673ffffffffffffffffffffffffffffffffffffffff16815260200182815260200192505050602060405180830381600087803b158015612fc457600080fd5b505af1158015612fd8573d6000803e3d6000fd5b505050506040513d6020811015612fee57600080fd5b8101908080519060200190929190505050151561300a57600080fd5b5050565b600073ffffffffffffffffffffffffffffffffffffffff168273ffffffffffffffffffffffffffffffffffffffff161415151561304a57600080fd5b6000811415151561305a57600080fd5b50505600a165627a7a72305820f4947e54115c0e3a6077b0b8f49baa1cd2f118cf6d7a2219aace4d7c6ff55e9c0029",
  "source": "pragma solidity ^0.4.24;\n\nimport \"./BasicCrowdsale.sol\";\nimport \"./MultipleWhitelistedCrowdsale.sol\";\n\n\ncontract WhitelistedBasicCrowdsale is BasicCrowdsale, MultipleWhitelistedCrowdsale {\n\n\n    constructor(uint256 _rate, address _wallet, address _token, uint256 _openingTime, uint256 _closingTime)\n    BasicCrowdsale(_rate, _wallet, ERC20(_token), _openingTime, _closingTime)\n    MultipleWhitelistedCrowdsale()\n    public {\n    }\n}",
  "sourcePath": "/Users/desimiramitkova/Projects/mycro-crowdsale/contracts/Crowdsale/WhitelistedBasicCrowdsale.sol",
  "compiler": {
    "name": "solc",
    "version": "0.4.25+commit.59dbf8f1.Emscripten.clang"
  },
  "schemaVersion": "0.9.6",
  "updatedAt": "2018-10-31T12:31:50.296Z"
}